{
  "contractName": "Adoption",
  "abi": [
    {
      "constant": true,
      "inputs": [
        {
          "internalType": "uint256",
          "name": "",
          "type": "uint256"
        }
      ],
      "name": "adopters",
      "outputs": [
        {
          "internalType": "address",
          "name": "",
          "type": "address"
        }
      ],
      "payable": false,
      "stateMutability": "view",
      "type": "function"
    },
    {
      "constant": false,
      "inputs": [
        {
          "internalType": "string",
          "name": "_lName",
          "type": "string"
        },
        {
          "internalType": "string",
          "name": "_certName",
          "type": "string"
        },
        {
          "internalType": "string",
          "name": "_issueDate",
          "type": "string"
        }
      ],
      "name": "saveCertificate",
      "outputs": [],
      "payable": false,
      "stateMutability": "nonpayable",
      "type": "function"
    },
    {
      "constant": true,
      "inputs": [],
      "name": "getCertificate",
      "outputs": [
        {
          "internalType": "string",
          "name": "",
          "type": "string"
        },
        {
          "internalType": "string",
          "name": "",
          "type": "string"
        },
        {
          "internalType": "string",
          "name": "",
          "type": "string"
        }
      ],
      "payable": false,
      "stateMutability": "view",
      "type": "function"
    },
    {
      "constant": false,
      "inputs": [
        {
          "internalType": "uint256",
          "name": "petId",
          "type": "uint256"
        }
      ],
      "name": "adopt",
      "outputs": [
        {
          "internalType": "uint256",
          "name": "",
          "type": "uint256"
        }
      ],
      "payable": false,
      "stateMutability": "nonpayable",
      "type": "function"
    },
    {
      "constant": true,
      "inputs": [],
      "name": "getAdopters",
      "outputs": [
        {
          "internalType": "address[16]",
          "name": "",
          "type": "address[16]"
        }
      ],
      "payable": false,
      "stateMutability": "view",
      "type": "function"
    }
  ],
  "bytecode": "0x608060405234801561001057600080fd5b5061079d806100206000396000f3fe608060405234801561001057600080fd5b50600436106100575760003560e01c80630ac164ee1461005c5780633de4eb171461021257806343ae80d3146102535780638588b2c51461028c578063ae15eb8e146102bb575b600080fd5b6102106004803603606081101561007257600080fd5b81019060208101813564010000000081111561008d57600080fd5b82018360208201111561009f57600080fd5b803590602001918460018302840111640100000000831117156100c157600080fd5b91908080601f016020809104026020016040519081016040528093929190818152602001838380828437600092019190915250929594936020810193503591505064010000000081111561011457600080fd5b82018360208201111561012657600080fd5b8035906020019184600183028401116401000000008311171561014857600080fd5b91908080601f016020809104026020016040519081016040528093929190818152602001838380828437600092019190915250929594936020810193503591505064010000000081111561019b57600080fd5b8201836020820111156101ad57600080fd5b803590602001918460018302840111640100000000831117156101cf57600080fd5b91908080601f016020809104026020016040519081016040528093929190818152602001838380828437600092019190915250929550610407945050505050565b005b61021a610448565b604051808261020080838360005b83811015610240578181015183820152602001610228565b5050505090500191505060405180910390f35b6102706004803603602081101561026957600080fd5b503561048f565b604080516001600160a01b039092168252519081900360200190f35b6102a9600480360360208110156102a257600080fd5b50356104ac565b60408051918252519081900360200190f35b6102c36104ed565b60405180806020018060200180602001848103845287818151815260200191508051906020019080838360005b838110156103085781810151838201526020016102f0565b50505050905090810190601f1680156103355780820380516001836020036101000a031916815260200191505b50848103835286518152865160209182019188019080838360005b83811015610368578181015183820152602001610350565b50505050905090810190601f1680156103955780820380516001836020036101000a031916815260200191505b50848103825285518152855160209182019187019080838360005b838110156103c85781810151838201526020016103b0565b50505050905090810190601f1680156103f55780820380516001836020036101000a031916815260200191505b50965050505050505060405180910390f35b825161041a9060109060208601906106b1565b50815161042e9060119060208501906106b1565b5080516104429060129060208401906106b1565b50505050565b61045061072f565b604080516102008101918290529060009060109082845b81546001600160a01b0316815260019091019060200180831161046757505050505090505b90565b6000816010811061049c57fe5b01546001600160a01b0316905081565b6000600f8211156104bc57600080fd5b33600083601081106104ca57fe5b0180546001600160a01b0319166001600160a01b03929092169190911790555090565b60108054604080516020601f6002600019610100600188161502019095169490940493840181900481028201810190925282815260609384938493919260119260129285918301828280156105835780601f1061055857610100808354040283529160200191610583565b820191906000526020600020905b81548152906001019060200180831161056657829003601f168201915b5050855460408051602060026001851615610100026000190190941693909304601f8101849004840282018401909252818152959850879450925084019050828280156106115780601f106105e657610100808354040283529160200191610611565b820191906000526020600020905b8154815290600101906020018083116105f457829003601f168201915b5050845460408051602060026001851615610100026000190190941693909304601f81018490048402820184019092528181529597508694509250840190508282801561069f5780601f106106745761010080835404028352916020019161069f565b820191906000526020600020905b81548152906001019060200180831161068257829003601f168201915b50505050509050925092509250909192565b828054600181600116156101000203166002900490600052602060002090601f016020900481019282601f106106f257805160ff191683800117855561071f565b8280016001018555821561071f579182015b8281111561071f578251825591602001919060010190610704565b5061072b92915061074e565b5090565b6040518061020001604052806010906020820280388339509192915050565b61048c91905b8082111561072b576000815560010161075456fea265627a7a7231582095189d6fef146ad425029cc5e11e9fe2a41ce20d5dd0568314e7be6aa811282b64736f6c63430005100032",
  "source": "pragma solidity ^0.5.0;\r\n\r\ncontract Adoption{\r\n\r\n address[16] public adopters;\r\n string lName;\n string certificateName;\n string issueDate;\r\n\r\n function saveCertificate(string memory _lName,string memory _certName, string memory _issueDate) public {\n       \n       lName = _lName;\n       certificateName = _certName;\n       issueDate = _issueDate;\r\n }\r\n\r\n function getCertificate() public view returns (string memory,string memory,string memory) {\n       return (\n       lName,\n       certificateName,\n       issueDate      \n       );\n   }\r\n\r\n   function adopt(uint petId) public returns (uint) {\r\n\t\trequire(petId >= 0 && petId <= 15);\r\n\t\tadopters[petId] = msg.sender;\r\n\t\treturn petId;\r\n    }\r\n\r\n\t// Retrieving the adopters\r\n\tfunction getAdopters() public view returns (address[16] memory) {\r\n\t\treturn adopters;\r\n\t}\r\n\r\n}\r\n",
  "sourcePath": "C:\\Users\\620342\\Desktop\\MLAI-Pearson\\Transformation\\Blockchain\\AWS\\pet-shop\\contracts\\adoption.sol",
  "compiler": {
    "name": "solc",
    "version": "0.5.16+commit.9c3226ce.Emscripten.clang"
  },
  "schemaVersion": "3.2.0",
  "updatedAt": "2020-05-28T08:06:28.286Z",
  "networkType": "ethereum",
  "devdoc": {
    "methods": {}
  },
  "userdoc": {
    "methods": {}
  }
}