{
  "contractName": "certIssue",
  "abi": [
    {
      "constant": false,
      "inputs": [
        {
          "internalType": "string",
          "name": "_lName",
          "type": "string"
        },
        {
          "internalType": "string",
          "name": "_certName",
          "type": "string"
        },
        {
          "internalType": "string",
          "name": "_issueDate",
          "type": "string"
        }
      ],
      "name": "saveCertificate",
      "outputs": [],
      "payable": false,
      "stateMutability": "nonpayable",
      "type": "function"
    },
    {
      "constant": true,
      "inputs": [],
      "name": "getCertificate",
      "outputs": [
        {
          "internalType": "string",
          "name": "",
          "type": "string"
        },
        {
          "internalType": "string",
          "name": "",
          "type": "string"
        },
        {
          "internalType": "string",
          "name": "",
          "type": "string"
        }
      ],
      "payable": false,
      "stateMutability": "view",
      "type": "function"
    }
  ],
  "bytecode": "0x608060405234801561001057600080fd5b5061061c806100206000396000f3fe608060405234801561001057600080fd5b50600436106100365760003560e01c80630ac164ee1461003b578063ae15eb8e146101f1575b600080fd5b6101ef6004803603606081101561005157600080fd5b81019060208101813564010000000081111561006c57600080fd5b82018360208201111561007e57600080fd5b803590602001918460018302840111640100000000831117156100a057600080fd5b91908080601f01602080910402602001604051908101604052809392919081815260200183838082843760009201919091525092959493602081019350359150506401000000008111156100f357600080fd5b82018360208201111561010557600080fd5b8035906020019184600183028401116401000000008311171561012757600080fd5b91908080601f016020809104026020016040519081016040528093929190818152602001838380828437600092019190915250929594936020810193503591505064010000000081111561017a57600080fd5b82018360208201111561018c57600080fd5b803590602001918460018302840111640100000000831117156101ae57600080fd5b91908080601f01602080910402602001604051908101604052809392919081815260200183838082843760009201919091525092955061033d945050505050565b005b6101f961037e565b60405180806020018060200180602001848103845287818151815260200191508051906020019080838360005b8381101561023e578181015183820152602001610226565b50505050905090810190601f16801561026b5780820380516001836020036101000a031916815260200191505b50848103835286518152865160209182019188019080838360005b8381101561029e578181015183820152602001610286565b50505050905090810190601f1680156102cb5780820380516001836020036101000a031916815260200191505b50848103825285518152855160209182019187019080838360005b838110156102fe5781810151838201526020016102e6565b50505050905090810190601f16801561032b5780820380516001836020036101000a031916815260200191505b50965050505050505060405180910390f35b825161035090600090602086019061054c565b50815161036490600190602085019061054c565b50805161037890600290602084019061054c565b50505050565b6060806060600060016002828054600181600116156101000203166002900480601f01602080910402602001604051908101604052809291908181526020018280546001816001161561010002031660029004801561041e5780601f106103f35761010080835404028352916020019161041e565b820191906000526020600020905b81548152906001019060200180831161040157829003601f168201915b5050855460408051602060026001851615610100026000190190941693909304601f8101849004840282018401909252818152959850879450925084019050828280156104ac5780601f10610481576101008083540402835291602001916104ac565b820191906000526020600020905b81548152906001019060200180831161048f57829003601f168201915b5050845460408051602060026001851615610100026000190190941693909304601f81018490048402820184019092528181529597508694509250840190508282801561053a5780601f1061050f5761010080835404028352916020019161053a565b820191906000526020600020905b81548152906001019060200180831161051d57829003601f168201915b50505050509050925092509250909192565b828054600181600116156101000203166002900490600052602060002090601f016020900481019282601f1061058d57805160ff19168380011785556105ba565b828001600101855582156105ba579182015b828111156105ba57825182559160200191906001019061059f565b506105c69291506105ca565b5090565b6105e491905b808211156105c657600081556001016105d0565b9056fea265627a7a72315820adef99a609b026108306e22e743812ca76a70e4c9e7227274f94aa3beea06de064736f6c63430005100032",
  "source": "pragma solidity ^0.5.0;\r\n\r\ncontract certIssue{\r\n\r\n \r\n string lName;\n string certificateName;\n string issueDate;\r\n\r\n function saveCertificate(string memory _lName,string memory _certName, string memory _issueDate) public {\n       \n       lName = _lName;\n       certificateName = _certName;\n       issueDate = _issueDate;\r\n }\r\n\r\n function getCertificate() public view returns (string memory,string memory,string memory) {\n       return (\n       lName,\n       certificateName,\n       issueDate      \n       );\n   }\r\n\r\n}\r\n",
  "sourcePath": "C:\\Users\\620342\\Desktop\\MLAI-Pearson\\Transformation\\Blockchain\\AWS\\pet-shop\\contracts\\adoption.sol",
  "compiler": {
    "name": "solc",
    "version": "0.5.16+commit.9c3226ce.Emscripten.clang"
  },
  "schemaVersion": "3.2.0",
  "updatedAt": "2020-05-26T10:39:47.787Z",
  "devdoc": {
    "methods": {}
  },
  "userdoc": {
    "methods": {}
  }
}